:03000000020305F3
:100100002020202057454C434F4D45210F202020D3
:10011000202048483A4D4D0F20202020205F5F3A94
:100120005F5F0F202020204441595B312D375D0F48
:10013000494E56414C4944204E554D4245520F3090
:1001400030304D4F4E54554557454454485546520E
:100150004953415453554E313233340F31323334D5
:1001600035363738392A30232020454E5445522021
:100170005448452050494E0F202054494D452049B0
:100180005320534554210F20494E434F525245436B
:1001900054202050494E0F202020454D45524745C0
:1001A0004E43590F2053454C454354204F5054491A
:1001B0004F4E0F31294E455720203229454449548E
:1001C0000F42454C4C2E204E4F2E5B30312D0F20D0
:1001D000204E4F2042454C4C53205345540F202075
:1001E00042454C4C20495320534554210F20424551
:1001F0004C4C204E4F2E204953200F204E45572067
:1002000042454C4C2054494D450F445552415449A8
:100210004F4E5B494E205345435D0F5B312D395D99
:100220003A200F20202020434F4E4649524D210FA7
:100230005345430F505245535320313A4D4F444597
:100240000F202020202020323A50415353574F5244
:10025000440F434F4E4649524D2050415353574F40
:1002600052440F4E45572050415353574F5244204C
:100270005345540F505245535320313A4D4F444546
:1002800020310F202020202020323A4D4F4445209D
:10029000320F534554204E45572050415353574F2A
:1002A00052440F202042454C4C2053595354454D45
:1002B00020200F4E4558542042454C4C3A200F20E8
:1002C0002020204E4F2042454C4C21202020200F42
:1002D000494E495449414C495A494E470F4D4F44A4
:1002E000452049532055504441544544210F0000B6
:1002F000000000000042454C4C2049532052494E1A
:1003000047494E470F7195C2A0C2A1C2A2C2B70011
:10031000D2A0D2A10074011203CD9002D012042CFD
:0F032000742E78041204C4120459D8F81204F68B
:0E032F00B43903120C3474011203CD90010096
:0F033D0012042C1204B71203C79002A312042C4F
:0F034C007565001203EC120E0A1204DD12057D16
:10035B001203C712049574141203CDE56712043E01
:10036B00790574141203CDD9FB744D120459E57D34
:10037B0024301204591203C1E56EB4FF051204A711
:0F038B0080C29002BF12042C80BA743C1203CDC2
:0F039A00743C1203CD743C1203CD740C1203CDCE
:0E03A90074061203CD74011203CD2212042C2F
:1003B7001204B72274801203CD2274C01203CD2217
:0F03C70074011203CD221203DBF580C2A5C2A67A
:1003D600D2A7C2A722C2A77580FFC2A5D2A6C2A76E
:0E03E600D2A72087F922907FFF795475660117
:0E03F400120B6685547D2275F06484FAE5F0E4
:0F04020075F00A84C425F0F54022C0E0540FFACB
:0F041100D0E054F0C475F00AA42A22E540540F3D
:0F0420002430FAE540C4540F2430FB2200740C42
:0F042F001203CDE493B40F0122A312045980F4F9
:10043E00C00175F003A4F5F0790490013FE5F09347
:10044E00D903D00122A312045980F21203DBF580E6
:10045E00D2A5C2A6D2A7C2A72212041CEB1204591F
:0F046E00EA120459222430F5F094394004E5F0E5
:10047D002407E5F012045922F55B54F0C4120473FD
:10048D00E55B540F12047322855240120467743ACF
:10049D00120459855140120467229002B312042CA4
:1004AD00856252856351120495227F0A7EFF7DFF7E
:0F04BD00DDFEDEFADFF622C007C006C0047F05B1
:1004CC007EFF7CFFDCFEDEFADFF6D004D006D00720
:1004DC002230B30730B40930B50B2212098D80F4E9
:0F04EC001206E680F21206D780F07D007590FEB2
:0F04FB00E59064FE705DED2403FD7590FDE590C6
:0F050A0064FD7050ED2403FD7590FBE59064FBDC
:100519007043ED2403FD7590F7E59064F77036227A
:0F0529007D007590FEE59064FE702AED2403FDC1
:100538007590FDE59064FD701DED2403FD7590FB3D
:0F054800E59064FB7010ED2403FD7590F7E590CE
:1005570064F77003020529E59054F0C41350030DA6
:0E05670080FA7590F00000E59064F070F5EDFC
:1005750090015C931204C422120E0AE567B5651654
:0F058500856765E552B5620DE551B56308E56F11
:10059400B400031205A922856765855262855163FB
:1005A4001205C080DC1203C79002F512042CAA6461
:0F05B4001204B7DAFB1203C71205C022756E00DE
:0F05C300756F00758300E565AC7DBC02022407EF
:0F05D200F582756601797C120B66A87CB8000370
:1005E10002067A7800E565BC02022407F5837403EC
:1005F1000888F0A4F5827566037941120B66E5411E
:100601008562F0C395F0405E700CC3E5428563F0EE
:1006110095F040526050B80102802AE5628544F0AD
:0F062100C395F0700AE5638545F0C395F0601648
:0F0630008544F0E541C395F0400C702BC3E545C0
:10063F008542F095F04021756EFF85414485424516
:0F064F008543461203C71204B78544401204675F
:0F065E008545401204671204C4E8B57C84E56E3C
:10066D00B4FF0A85446285456385466422756FFF34
:0F067D007564002274011203CD90016812042CE1
:0E068C001203C1780674141203CDD8FB740E4D
:0F069A001203CD120C287854756F00790486F086
:1006A900120529B42A0280D0B5F01E742A12045901
:0E06B90008D9EBE56F75F000B5F00122740171
:1006C7001203CD9001871203B480AF756FFF80DDF1
:0F06D70012068174011203CD90019712042C2298
:0E06E60074011203CD9001A412042C1203C162
:0E06F4009001B312042C740E1203CD120529CE
:0F07020075F031B5F00302085575F032B5F0EE21
:0F0711001209DFF553900000AC7D795075660139
:0F072000E553BC02022407F582120B667950E7FD
:0E072F0075F000B5F01074011203CD9001CFEB
:0F073D0012042C1204B780A1E553900000AC7D8C
:10074C00BC0203C32407F5827950756601120B664F
:10075C007950E7C0E074011203CD9001C112042C52
:0F076C00D0E01203FBC0E0120467745D12045961
:0E077B001203C1740F1203CD12052912045986
:0F078900B42A04D0E080B5B423071208E9D0E009
:0E07980080ABC39430C4F5F012052912045949
:0F07A600B42A04D0E08098B423071208E9D0E009
:1007B500808EC3943025F0F5F0D0E0C395F0500657
:0E07C5001208E9020745E5F0B400061208E943
:0F07D300020745E5F012040CF57C855383AC7DDD
:1007E200E583BC0203C32407F58375F003E57CA40B
:1007F200F5827954756603120B66855452855551FC
:100802007420120459120495740C1203CD12052996
:0F081200B42A03020745B423EF75F001120A530D
:0F08210012093E120910120529B42A0302071109
:10083000B423F474011203CD9001DE12042CE553AD
:0F084000AC7DBC02022407F583E57C75F003A4B0
:0E084F00F5821208F8221209DFF55375F00148
:10085D00120A5312093E758300AC7DE553BC0203A9
:10086D00C324077566017954F582120B6685547C95
:10087D00120910120529B42A0280CDB423F5AC7DDE
:0E088D00E553BC010280022407F583E57C04DC
:0E089B0075F003A4F5821208F874011203CD63
:0F08A9001203BB9001DE12042C1203C19001ED6B
:0F08B80012042CE57C041203FB120467E57C0498
:0E08C700F5547854756601758300AC7DE553D9
:1008D500BC01028003C32407F582120B1C1204B766
:0F08E5001204B72274011203CD90013012042CBB
:1008F4001204B7221203C7756603855254855155F5
:0E090400856A5678541203C7120B1C22740128
:0F0912001203CD90022312042C1203C11204957C
:0F09210074141203CDE55312043E74141203CD67
:10093000E56A243012045990023012042C2274010A
:0F0940001203CD90020A12042C1203C190021B65
:0E094F0012042C740F1203CD12052912045944
:10095D00B430051208E980D9B42A0280D4B4230535
:10096D001208E980CCC375F03095F0C0E01205296E
:10097D00B42A05D0E002093EB423F2D0E0F56A2294
:0F098D0012068175F000120A53756001855161E1
:0F099C00120D8F756002855261120D8F1209DFE7
:1009AB00756003F561120D8F74011203CD90017800
:0F09BB001203B41203C1120E0AC001790374149F
:0F09CA001203CDD9FBD0011204957420120459E9
:0E09D900E56712043E2274011203CD90012343
:1009E70012042C1203C11203CD740F1203CD780524
:1009F70074141203CDD8FB120529120459B423022B
:100A07008036B42A028031B43002802CF9C001C389
:100A170094385024C374141203CDE9943012043E61
:0E0A2700740C1203CD120529B42A030209DF54
:0F0A3500B423F4D001E9C39430221203BB740C34
:0F0A44001203CD9001301203B41204B70209DF80
:0F0A530074011203CD7401C395F0600590010D7D
:0E0A620080039001FB12042C1203C1900118B6
:0F0A700012042C1203C1740F1203CD79057414F4
:100A7F001203CDD9F9120529120459B42302803774
:100A8F00B42A03020A53F9C39433502BC3E99430A9
:0E0A9F00C4F9120529120459B42303020AC631
:100AAD00B42A03020A53C3943029F9C3942550097B
:0F0ABD0074141203CD8952800F1203BB900130C5
:0F0ACC001203B41204B7020A5312052912045977
:0F0ADB00B4230280E6B42A03020A53F8C3943608
:0E0AEA0050DAE8C39430C4F8120529120459FA
:100AF800B4230280C9B42A03020A53C3943028F8E5
:0E0B0800740C1203CD120529B42A03020A53FD
:100B1600B423F4885122120B9474A0120BD2E582EE
:0F0B2600120BD2E583120BD28664E564120BD258
:0E0B3500120BB3120C1B120C1B120B9474A0AB
:0F0B4300120BD2E582120BD2E583120BD286641D
:100B5200E564120BD2120BB3120C1B120C1BA3086E
:0E0B6200D566B722120B9474A0120BD2E58256
:100B7000120BD2E583120BD2120B9474A1120BD27A
:100B8000120BF4120BB3120C1B120C1BA3A73C0983
:100B9000D566D322D2A100000000000000D2A00040
:100BA00000000000000000C2A100000000000000E2
:100BB000C2A022C2A100000000000000D2A00000DC
:0F0BC000000000000000D2A100000000000000B3
:0F0BCF00C2A0227F003392A1120C0E0FBF08F6B6
:100BDE00D2A1000000000000D2A020A1FD120C1B2B
:0F0BEE00C2A0120C1B22D2A17F00E4D2A00000F3
:100BFD00A2A133C2A00FBF08F3D2A1120C0EF53C77
:0E0C0D0022D2A00000000000000000C2A022C1
:0F0C1B0075330B7532FFD532FDD533F72279547F
:100C2A00907001756604120B66221203C790023493
:0F0C3A0012042C1203C190024112042C1205293E
:100C4900B423051208E980E3B42A0280DEB4300532
:0F0C59001208E980D6F9C394335051E9C394309F
:0F0C6800B401461203C790027412042C1203C188
:0F0C770090028312042C120529B423051208E9F8
:100C860080E3B42A0280DEB430051208E980D6F982
:0E0C9600C394335020E9C39430F57D120D80D5
:100CA4009002DD12042C1204B71203C722120CC1E5
:100CB400221208E9020C341208E9020C6B120681B4
:100CC4001203C7120CCB2290029212042C120CF0C5
:100CD400120D26120CE41203C790026312042C2294
:0F0CE4007566049070017854120B1C221203C124
:100CF300740F1203CD790674141203CDD9F9785405
:0F0D03007904120529F6B42A0B1203C790029245
:100D120012042C80D9742A12045908D9E612052922
:100D2200B423FA221203C790025212042C120D337A
:100D320022756D001203C1740F1203CD790674146B
:0E0D42001203CDD9F978547A0486F0120529EF
:0E0D5000B5F017742A12045908DAF0120529BA
:0F0D5E00B42A00B423F7E56DB4000622756DFFCB
:100D6D0080E474011203CD90018712042C1204B794
:0E0D7D00020CC41203C7787D756601907FFFDB
:0F0D8B00120B1C22C2A1C2A074D0120E3BD2A127
:100D9A00D2A0B2B020A1EEC2A0E560120E3BD2A151
:100DAA00D2A020A1E0C2A0E561120E3BD2A1D2A03E
:100DBA0020A1D2C2A1C2A0D2A0D2A122C2A1C2A005
:100DCA0074D0120E3BD2A1D2A020A1F0C2A0E5603D
:100DDA00120E3BD2A1D2A020A1E2C2A0D2A0D2A1DF
:100DEA00C2A1C2A074D1120E3BD2A1D2A020A1CC22
:100DFA00C2A0120E4BD2A1D2A0C2A0D2A0D2A122CE
:0F0E0A00756000120DC6856150120E5D75600196
:0F0E1900120DC6856151120E5D756002120DC675
:0F0E2800856152120E5D756003120DC6856167FC
:0F0E3700120E5D22C0027A083392A1D2A0C2A08F
:100E4600DAF7D00222C0027A08D2A0A2A1C2A03349
:0F0E5600DAF7F561D00222C2A1D2A000D2A12208
:100E65007566079002EE7854E493F608A3D566F804
:100E75009000017854756607120B1C900008785491
:070E8500756607120B1C2229
:00000001FF
