:03000000020310E8
:100100002020202057454C434F4D45210F202020D3
:10011000202048483A4D4D0F20202020205F5F3A94
:100120005F5F0F202020204441595B312D375D0F48
:10013000494E56414C4944204E554D4245520F3090
:1001400030304D4F4E54554557454454485546520E
:100150004953415453554E313233340F31323334D5
:1001600035363738392A30232020454E5445522021
:100170005448452050494E0F202054494D452049B0
:100180005320534554210F20494E434F525245436B
:1001900054202050494E0F202020454D45524745C0
:1001A0004E43590F2053454C454354204F5054491A
:1001B0004F4E0F31294E455720203229454449548E
:1001C0000F42454C4C2E204E4F2E5B30312D0F20D0
:1001D000204E4F2042454C4C53205345540F202075
:1001E00042454C4C20495320534554210F20424551
:1001F0004C4C204E4F2E204953200F204E45572067
:1002000042454C4C2054494D450F445552415449A8
:100210004F4E5B494E205345435D0F5B312D395D99
:100220003A200F20202020434F4E4649524D210FA7
:100230005345430F505245535320313A4D4F444597
:100240000F202020202020323A50415353574F5244
:10025000440F434F4E4649524D2050415353574F40
:1002600052440F4E45572050415353574F5244204C
:100270005345540F505245535320313A4D4F444546
:1002800020310F202020202020323A4D4F4445209D
:10029000320F534554204E45572050415353574F2A
:1002A00052440F202042454C4C2053595354454D45
:1002B00020200F4E4558542042454C4C3A200F20E8
:1002C0002020204E4F2042454C4C210F494E49548E
:1002D00049414C495A494E470F4D4F4445204953D7
:1002E0002055504441544544210F42454C4C20492F
:1002F000532052494E47494E470F20204C4F41440E
:10030000494E472042454C4C0F00000000000000C1
:1003100071B8C2A0C2A1C2A2C2B700D2A0D2A1002D
:0F0320001203E171B89002CC12044D742E7804D0
:0E032F0012050E12047AD8F812050E120546B9
:0F033D00B43903120C7F1203E190010012044641
:0F034C001203E19002A31204461203E1757E0032
:0F035B00756EFF756F00756500754FFF853A4E23
:0E036A00120406120E5A120527E57EB400DDBD
:0E0378001205CD1203E1120E5A1204D87414AD
:0F0386001203E7E56712045F790574141203E7A9
:0E039500D9FB744D12047AE57D243012047AEF
:1003A3001203DBE56EB4FF051204C880BD9002BFE3
:0F03B30012044D80B5743C1203E7743C1203E74B
:0F03C200743C1203E7740C1203E774061203E78E
:1003D1001203E12274801203E72274C01203E722A0
:0F03E10074011203E7221203F5F580C2A5C2A62C
:1003F000D2A7C2A722C2A77580FFC2A5D2A6C2A754
:0E040000D2A72087F922901FFF79547566015C
:0E040E00120BB185547D2275F06484FAE5F07E
:0F041C0075F00A84C425F0F54022C0E0540FFAB1
:0F042B00D0E054F0C475F00AA42A22E540540F23
:0F043A002430FAE540C4540F2430FB2212044D45
:100449001205012200740C1203E7E493B40F012290
:10045900A312047A80F4C00175F003A4F5F07904BD
:0F04690090013FE5F093D903D00122A312047A4A
:1004780080F21203F5F580D2A5C2A6D2A7C2A722A0
:10048800120436EB12047AEA12047A22F55B54F06D
:10049800C41204A4E55B540F1204A4222430F5F01E
:0E04A80094394004E5F02407E5F012047A22AE
:0E04B600855240120488743A12047A8551402F
:1004C400120488229002B312044D8562528563514E
:0F04D4001204B622E550B54F1585504F855240A2
:0F04E300120488E54E12047A85514012048822D3
:0F04F200E54EB43A05754E2080E1754E3A80DC38
:0F0501007F0A7EFF7DFFDDFEDEFADFF622C007F8
:10051000C006C0047F047EF07CFFDCFEDEFADFF65E
:10052000D004D006D0072230B30730B40C30B51158
:0F05300022757EFF1209DC80F1757EFF12073DF8
:10053F0080EC12072680EA7D007590FEE59064FE40
:10054F00705DED2403FD7590FDE59064FD7050ED39
:10055F002403FD7590FBE59064FB7043ED2403FDD0
:0F056F007590F7E59064F77036227D007590FE69
:0F057E00E59064FE702AED2403FD7590FDE59075
:0F058D0064FD701DED2403FD7590FBE59064FB8C
:0F059C007010ED2403FD7590F7E59064F7700380
:0E05AB00020579E59054F0C41350030D80FA58
:1005B9007590F00000E59064F070F5ED90015C93A2
:0F05C90012050E22120E5AE567B5651B85676590
:0F05D800E552B56212E551B5630DE56FB4000849
:0F05E700E56EB4FF031206042285676585526234
:1005F60085516385524485514512061F80D1D2B775
:100606001203E19002EA12044DAA64120501DAFB14
:0F061600C2B71203E112061F22756E00756F0046
:0E062500758300E565AC7DBC02022407F582FA
:10063300756601797C120BB1A87CB800030206CD64
:0F0643009002FA1204467800E565BC0202240713
:0F065200F58374030888F0A4F582756603794177
:10066100120BB1E5418552F0C395F0404C700CC3BB
:10067100E5428551F095F04040603EB80102802A84
:10068100E5628544F0C395F0700AE5638545F0C3E2
:1006910095F060168544F0E541C395F0400C701962
:1006A100C3E5458542F095F0400F756EFF1203E1F9
:0F06B100854144854245854346E8B57C96E56E14
:1006C000B4FF0A85446285456385466422756FFFE1
:1006D000756400221203E190016812044D1203DBDD
:0E06E000780674141203E7D8FB740E1203E7B9
:0F06EE00120C737854756F00790486F012057939
:1006FD00B42A0280D2B5F01C742A12047A08D9EB00
:0F070D00E56F75F000B5F001221203E19001874E
:0F071C0012044680B3756FFF80DF1206D4D2B788
:0F072B001203E112050E90019712044D12050EF4
:0F073A0080EF221206D41203E19001A412044DA5
:0E0749001203DB9001B312044D740E1203E78D
:0F07570012057975F031B5F0030208A775F0327D
:0F076600B5F0EE120A2CF553900000AC7D7950DF
:0F077500756601E553BC02022407F582120BB131
:0F0784007950E775F000B5F00E1203E19001CF48
:0F07930012044D12050180A5E553900000AC7DC6
:1007A200BC0203C32407F5827950756601120BB1AE
:1007B2007950E7C0E01203E19001C112044DD0E08C
:1007C200120415C0E0120488745D12047A1203DB6D
:1007D200740F1203E712057912047AB42A04D0E0E6
:1007E20080B7B42307120939D0E080ADC39430C476
:0F07F200F5F012057912047AB42A04D0E0809A47
:0F080100B42307120939D0E08090C3943025F05A
:0F081000F5F0D0E0C395F0500612093902079BAE
:10081F00E5F0B4000612093902079BE5F012042631
:0F082F00F57C855383AC7DE583BC0203C32407AE
:0F083E00F58375F003E57CA4F5827954756603A4
:0E084D00120BB1855452855551742012047A55
:0E085B001204B6740C1203E7120579B42A03D6
:0F08690002079BB423EF75F001120AA012098A4F
:0F08780012095E120579B42A03020769B423F44A
:100887001203E19001DE12044DE553AC7DBC020278
:100897002407F583E57C75F003A4F5821209462247
:0E08A700120A2CF55375F001120AA012098AEC
:1008B500758300AC7DE553BC0203C324077566014F
:1008C5007954F582120BB185547C12095E120579B3
:0F08D500B42A0280CDB423F5AC7DE553BC0102FB
:0F08E40080022407F583E57C0475F003A4F582F8
:0F08F3001209461203E11203D59001DE12044DE3
:0F0902001203DB9001ED12044DE57C0412041585
:10091100120488E57C04F5547854756601758300EA
:0E092100AC7DE553BC01028003C32407F582C0
:10092F00120B67120501120501221203E19001302B
:10093F0012044D120501221203E17566038552540C
:0F094F00855155856A5678541203E1120B6722C1
:0F095E001203E190022312044D1203DB1204B6C0
:0F096D0074141203E7E55312045F74141203E7C6
:0E097C00E56A243012047A90023012044D22F3
:0F098A001203E190020A12044D1203DB90021BCC
:0E09990012044D740F1203E712057912047A4E
:1009A700B4300512093980DBB42A0280D6B4230596
:0F09B70012093980CEC375F03095F0C0E0740C92
:0E09C6001203E7120579B42A05D0E002098A6F
:0E09D400B423F2D0E0F56A221206D475F000CA
:0F09E200120AA0756001855161120DDF75600268
:0E09F100855261120DDF120A2C756003F5614C
:0F09FF00120DDF1203E19001781204461203DBA0
:100A0E00120E5AC001790374141203E7D9FBD001F8
:100A1E001204B6742012047AE56712045F22740180
:0F0A2E001203E790012312044D1203DB1203E7BA
:0E0A3D00740F1203E7780574141203E7D8FB58
:100A4B0012057912047AB423028036B42A0280315B
:100A5B00B43002802CF9C001C394385024C37414F1
:0E0A6B001203E7E9943012045F740C1203E7E3
:100A7900120579B42A03020A2CB423F4D001E9C37C
:0E0A89009430221203D5740C1203E790013052
:0F0A9700120446120501020A2C1203E17401C376
:0F0AA60095F0600590010D80039001FB12044D47
:0E0AB5001203DB90011812044D1203DB740FC4
:0F0AC3001203E7790574141203E7D9F9120579C4
:100AD20012047AB423028037B42A03020AA0F9C3AB
:100AE2009433502BC3E99430C4F912057912047A75
:100AF200B42303020B11B42A03020AA0C3943029BF
:0F0B0200F9C39425500974141203E78952800F28
:0F0B11001203D5900130120446120501020AA00A
:0E0B200012057912047AB4230280E6B42A0387
:0F0B2E00020AA0F8C3943650DAE8C39430C4F832
:0E0B3D0012057912047AB4230280C9B42A0387
:100B4B00020AA0C3943028F8740C1203E71205793B
:0F0B5B00B42A03020AA0B423F4885122120BDF3C
:0F0B6A0074A0120C1DE583120C1DE582120C1DE8
:100B79008664E564120C1D120BFE120C66120C66DB
:0F0B8900120BDF74A0120C1DE583120C1DE58208
:100B9800120C1D8664E564120C1D120BFE120C6605
:0E0BA800120C66A308D566B722120BDF74A0EC
:100BB600120C1DE583120C1DE582120C1D120BDFB3
:0E0BC60074A1120C1D120C3F120BFE120C66D5
:100BD400120C66A3A73C09D566D322D2A10000005B
:100BE40000000000D2A00000000000000000C2A12C
:100BF40000000000000000C2A022C2A1000000000A
:100C0400000000D2A00000000000000000D2A100FB
:0E0C1400000000000000C2A0227F003392A169
:0F0C2200120C590FBF08F6D2A10000000000000D
:100C3100D2A020A1FD120C66C2A0120C6622D2A184
:100C41007F00E4D2A00000A2A133C2A00FBF08F32D
:100C5100D2A1120C59F53C22D2A0000000000000E4
:0E0C61000000C2A02275330B7532FFD532FDA4
:100C6F00D533F7227954901001756604120BB12217
:0F0C7F001203E190023412044D1203DB90024184
:0E0C8E0012044D120579B4230512093980E3D2
:0F0C9C00B42A0280DEB4300512093980D6F9C3BC
:0E0CAB0094335051E9C39430B401461203E172
:0F0CB90090027412044D1203DB90028312044D5B
:100CC800120579B4230512093980E3B42A0280DEBB
:100CD800B4300512093980D6F9C394335020E9C3DA
:100CE8009430F57D120DD09002D912044D120501F1
:0E0CF8001203E122120D0C22120939020C7FA8
:100D0600120939020CB61206D41203E1120D16228C
:0F0D160090029212044D120D3B120D76120D2F0A
:100D25001203E190026312044622756604901001D5
:100D35007854120B67221203DB740F1203E779064E
:0F0D450074141203E7D9F978547904120579F67A
:100D5400B42A0B1203E190029212044D80D9742A32
:0E0D640012047A08D9E6120579B42A0280C971
:100D7200B423F5221203E190025212044D120D83A4
:100D820022756D001203DB740F1203E779067414E7
:0E0D92001203E7D9F978547A0486F012057935
:0E0DA000B5F019742A12047A08DAF0120579F7
:0E0DAE00B42A0280D0B423F5E56DB40006220D
:0E0DBC00756DFF80E21203E190018712044D75
:0E0DCA00120501020D0F1203E1787D7566011E
:100DD800901FFF120B6722C2A1C2A074D0120E8B03
:100DE800D2A1D2A0B2B020A1EEC2A0E560120E8BB3
:100DF800D2A1D2A020A1E0C2A0E561120E8BD2A19F
:100E0800D2A020A1D2C2A1C2A0D2A0D2A122C2A1A6
:100E1800C2A074D0120E8BD2A1D2A020A1F0C2A081
:100E2800E560120E8BD2A1D2A020A1E2C2A0D2A06E
:0F0E3800D2A1C2A1C2A074D1120E8BD2A1D2A09E
:100E470020A1CCC2A0120E9BD2A1D2A0C2A0D2A038
:0F0E5700D2A122756000120E16856150120EADE9
:0F0E6600756001120E16856151120EAD75600296
:0F0E7500120E16856152120EAD756003120E1625
:100E8400856167120EAD22C0027A083392A1D2A006
:0F0E9400C2A0DAF7D00222C0027A08D2A0A2A12F
:0F0EA300C2A033DAF7F561D00222C2A1D2A000BB
:100EB200D2A1227566079003097854E493F608A339
:0E0EC200D566F89000017854756607120B672C
:0C0ED0009000087854756607120B67222A
:00000001FF
