:0300000002033FB9
:100100002020202057454C434F4D45210F202020D3
:10011000202048483A4D4D0F20202020205F5F3A94
:100120005F5F0F202020204441595B312D375D0F48
:10013000494E56414C4944204E554D4245520F3090
:1001400030304D4F4E54554557454454485546520E
:100150004953415453554E313233340F31323334D5
:1001600035363738392A30232020454E5445522021
:100170005448452050494E0F202054494D452049B0
:100180005320534554210F20494E434F525245436B
:1001900054202050494E0F202020454D45524745C0
:1001A0004E43590F205052455353202020203129CF
:1001B0004E45570F32294544495420332944454C74
:1001C0004554450F42454C4C2E204E4F2E5B30314E
:1001D0002D0F20204E4F2042454C4C532053455468
:1001E0000F202042454C4C20495320534554210FA9
:1001F0002042454C4C204E4F2E204953200F204E7C
:1002000045572042454C4C2054494D450F445552CA
:100210004154494F4E5B494E205345435D0F5B317E
:100220002D395D3A200F5345430F2050524553530B
:1002300020202031294D4F44450F20322950494E6E
:10024000202020332952455345540F434F4E4649F1
:10025000524D2050415353574F52440F4E45572053
:1002600050415353574F5244205345540F50524519
:10027000535320313A4D4F444520310F2020202048
:100280002020323A4D4F444520320F534554204EE2
:1002900045572050415353574F52440F2020424559
:1002A0004C4C2053595354454D20200F4E45585423
:1002B0002042454C4C3A200F202020204E4F204217
:1002C000454C4C210F494E495449414C495A494EDD
:1002D000470F4D4F44452049532055504441544504
:1002E00044210F42454C4C2049532052494E474926
:1002F0004E470F20204C4F4144494E472042454C29
:100300004C0F20202020434F4E4649524D210F20B4
:1003100020202044454C4554494E470F202020437F
:10032000414E43454C4C4544210F2020205245531B
:0F033000455454494E47210F00000000000000C3
:10033F0071E7C2A0C2A1C2A2C2B700D2A0D2A100CF
:0F034F0012041071E79002C512047C742E78041A
:0E035E001205391204A5D8F8120539120571DE
:0F036C00B43903120D051204109001001204752C
:0F037B0012041090029C120475120410757E007B
:0F038A00756EFF756F00756500754FFF853A4EF4
:0E039900120435120F08120552E57EB400DD85
:0E03A7001205F8120410120F08120503741448
:0F03B500120416E56712048E79057414120416EB
:0E03C400D9FB744D1204A5E57D24301204A56A
:1003D20012040AE56EB4FF051204F380BD9002B860
:0F03E20012047C80B5743C120416743C1204168D
:0F03F100743C120416740C1204167406120416CF
:100400001204102274801204162274C012041622E0
:0F041000740112041622120424F580C2A5C2A69C
:10041F00D2A7C2A722C2A77580FFC2A5D2A6C2A724
:0E042F00D2A72087F922901FFF79547566012D
:0E043D00120C2B85547D2275F06484FAE5F0D4
:0F044B0075F00A84C425F0F54022C0E0540FFA82
:0F045A00D0E054F0C475F00AA42A22E540540FF4
:0F0469002430FAE540C4540F2430FB2212047CE7
:1004780012052C2200740C120416E493B40F012206
:0E048800A31204A580F475F003A4F5F0790426
:0F04960090013FE5F093D90122A31204A580F451
:0E04A500120424F580D2A5C2A6D2A7C2A722B7
:1004B300120465EB1204A5EA1204A522F55B54F0BD
:1004C300C41204CFE55B540F1204CF222430F5F09D
:0E04D30094394004E5F02407E5F01204A52258
:0E04E1008552401204B3743A1204A5855140AE
:1004EF001204B3229002AC12047C856252856351D0
:0F04FF001204E122E550B54F1585504F8552404C
:0F050E001204B3E54E1204A58551401204B32226
:0F051D00E54EB43A05754E2080E1754E3A80DC0C
:0F052C007F0A7EFF7DFFDDFEDEFADFF622C007CD
:10053B00C006C0047F047EF07CFFDCFEDEFADFF633
:10054B00D004D006D0072230B30730B40C30B5112D
:0F055B0022757EFF120A5A80F1757EFF12076D1E
:10056A0080EC12075180EA7D007590FEE59064FEEA
:10057A00705DED2403FD7590FDE59064FD7050ED0E
:10058A002403FD7590FBE59064FB7043ED2403FDA5
:0F059A007590F7E59064F77036227D007590FE3E
:0F05A900E59064FE702AED2403FD7590FDE5904A
:0F05B80064FD701DED2403FD7590FBE59064FB61
:0F05C7007010ED2403FD7590F7E59064F7700355
:0E05D6000205A4E59054F0C41350030D80FA02
:1005E4007590F00000E59064F070F5ED90015C9377
:0F05F40012053922120F08E567B5651B8567658B
:0F060300E552B56212E551B5630DE56FB400081D
:0F061200E56EB4FF0312062F22856765855262DD
:1006210085516385524485514512064A80D1D2B71E
:100631001204109002E312047CAA6412052CDAFB66
:0F064100C2B712041012064A22756E00756F00C0
:0E065000758300E565AC7DBC02022407F582CF
:10065E00756601797C120C2BA87CB800030206F893
:0F066E009002F31204757800E565BC02022407C0
:0F067D00F58374030888F0A4F58275660379414C
:10068C00120C2BE5418552F0C395F0404C700CC315
:10069C00E5428551F095F04040603EB80102802A59
:1006AC00E5628544F0C395F0700AE5638545F0C3B7
:1006BC0095F060168544F0E541C395F0400C701937
:1006CC00C3E5458542F095F0400F756EFF1204109E
:0F06DC00854144854245854346E8B57C96E56EE9
:1006EB00B4FF0A85446285456385466422756FFFB6
:1006FB007564002212041090016812047C12040A23
:0E070B0078067414120416D8FB740E1204162D
:0F071900120CED7854756F00790486F01205A468
:10072800B42A0280D2B5F01C742A1204A508D9EBA9
:0F073800E56F75F000B5F00122120410900187F3
:0F07470012047580B3756FFF80DF1206FF740C0C
:0E075600120416D2B712041012053990019742
:0F07640012047C12053980EF221206FF120410D6
:0F0773009001A412047C12040A9001B412047CB9
:0E078200740C1204161205A475F031B5F003C4
:0F0790000207EB75F032B5F0030207A575F033E1
:10079F00B5F0E502089A120AAAF5531209F4E550CA
:0F07AF00B4000E1204109001D212047C12052C1B
:0E07BE0080B012091975F001120B1A120A0808
:0F07CC0012086E1205A4B42A030207A5B423F481
:1007DB001204109001E112047C1209C71208562270
:1007EB00120AAAF55375F001120B1A120A08795462
:0F07FB001209DF756601120C2B85547C12086EF3
:10080A001205A4B42A0280D9B423F5E57C04F57C48
:0F081A001209C71208561204101204049001E1CB
:0E08290012047C12040A9001F012047CE57C9B
:0E0837001204441204B3E57C1209FD12052CD4
:1008450012052C2212041090013012047C12052C82
:1008550022120410756603855254855155856A56D2
:0F0865007854120410120BE122120410900302B7
:1008740012047C12040A1204E17414120416E553DF
:0F08840012048E7414120416E56A24301204A5AF
:0F08930090022612047C22120AAAF5531209F4CD
:0E08A200E550B4000F1204109001D212047C35
:0F08B00012052C0207701209191204109003028E
:0F08BF0012047C1205A475F02AB5F00302089A02
:0F08CE0075F023B5F0EEE550C3141209FDE550A7
:1008DD00B401012204F55012041090030F12047C90
:0F08ED00E57CB550012204F57C1209C77566033E
:0F08FC007954120C2BE57C14F57C1209C7785443
:10090B00756603120BE1E57C04F57C80D522E5537B
:10091B001209F4E550C0E01204109001C412047CDB
:0F092B00D0E0120444C0E01204B3745D1204A5BE
:0E093A0012040A740F1204161205A41204A56A
:0F094800B42A04D0E080CAB42307120849D0E0D3
:0E09570080C0C39430C4F5F01205A41204A5AC
:0F096500B42A04D0E080ADB42307120849D0E0D3
:1009740080A3C3943025F0F5F0D0E0C395F0500681
:0E098400120849020919E5F0B40006120849EC
:0F099200020919E5F0120455F57C1209C77954D2
:0E09A100756603120C2B855452855551742037
:0E09AF001204A51204E1740C1204161205A421
:0F09BD00B42A03020919B423EF22855383AC7DBA
:1009CC00E583BC0203C32407F58375F003E57CA41F
:0F09DC00F58222900000AC7D7850756601E553DE
:0E09EB00BC0203C32407F5822279501209DFF3
:0F09F900120C2B22F55078501209DF120BE1225D
:0F0A080012041090020D12047C12040A90021EB8
:0E0A170012047C740F1204161205A41204A51A
:100A2500B4300512084980DBB42A0280D6B4230508
:0F0A350012084980CEC375F03095F0C0E0740C04
:0E0A44001204161205A4B42A05D0E0020A0816
:0E0A5200B423F2D0E0F56A221206FF75F00020
:0F0A6000120B1A756001855161120E8D756002BF
:0E0A6F00855261120E8D120AAA756003F561A0
:0F0A7D00120E8D12041090017812047512040AE3
:100A8C00120F08C00179037414120416D9FBD0019B
:100A9C001204E174201204A5E56712048E2274017D
:0F0AAC0012041690012312047C12040A1204167D
:0E0ABB00740F12041678057414120416D8FB7A
:100AC9001205A41204A5B423028032B42A02802D8F
:0E0AD900B430028028FBC394385022C374143A
:0E0AE700120416EB943012048E740C120416D6
:100AF5001205A4B42A03020AAAB423F4EBC3943062
:0F0B050022120404740C120416900130120475AD
:100B140012052C020AAA1204107401C395F0600590
:0E0B240090010D80039001FE12047C12040A61
:100B320090011812047C12040A740F12041679052B
:100B42007414120416D9F91205A41204A5B42302CE
:100B52008037B42A03020B1AF9C39433502BC3E92A
:100B62009430C4F91205A41204A5B42303020B8B1A
:100B7200B42A03020B1AC3943029F9C394255009ED
:0F0B820074141204168952800F1204049001306B
:0F0B910012047512052C020B1A1205A41204A5EA
:0F0BA000B4230280E6B42A03020B1AF8C394367A
:0E0BAF0050DAE8C39430C4F81205A41204A56D
:100BBD00B4230280C9B42A03020B1AC3943028F857
:0E0BCD00740C1204161205A4B42A03020B1AAB
:100BDB00B423F4885122120C5974A0120C97E5839C
:0F0BEB00120C97E582120C978664E564120C9742
:0E0BFA00120C78120CE0120CE0120C5974A0D0
:0F0C0800120C97E583120C97E582120C97866405
:100C1700E564120C97120C78120CE0120CE0A30892
:0E0C2700D566B722120C5974A0120C97E58303
:100C3500120C97E582120C97120C5974A1120C979D
:100C4500120CB9120C78120CE0120CE0A3A73C09A7
:100C5500D566D322D2A100000000000000D2A0007A
:100C650000000000000000C2A1000000000000001C
:100C7500C2A022C2A100000000000000D2A0000016
:0F0C8500000000000000D2A100000000000000ED
:0F0C9400C2A0227F003392A1120CD30FBF08F62B
:100CA300D2A1000000000000D2A020A1FD120CE0A0
:0F0CB300C2A0120CE022D2A17F00E4D2A0000068
:100CC200A2A133C2A00FBF08F3D2A1120CD3F53CEC
:0E0CD20022D2A00000000000000000C2A022FC
:0F0CE00075330B7532FFD532FDD533F7227954BA
:100CEF00901001756604120C2B22120849020D0593
:0F0CFF00120849020D4112041090022A12047CBF
:0E0D0E0012040A90023A12047C740C120416AD
:100D1C001205A4B4230512084980DEB42A0280D936
:100D2C00B4300512084980D1F9C3943450BFE9C3DB
:0E0D3C009430B4014612041090026D12047C33
:0F0D4A0012040A90027C12047C1205A4B4230543
:100D590012084980E3B42A0280DEB430051208493A
:0E0D690080D6F9C39433508EE9C39430F57DE3
:100D7700120E7E9002D212047C12052C120410224D
:100D8700B40204120DBA2212041090030212047C5A
:100D97001205A4B42A0A12041090031C1204752227
:0F0DA700B423ED12041090032A120475120F6387
:0E0DB600120410221206FF120410120DC422A5
:0F0DC40090028B12047C120DE9120E24120DDD29
:100DD30012041090025C12047522756604901001CF
:100DE3007854120BE12212040A740F1204167906C6
:0F0DF3007414120416D9F9785479041205A4F671
:100E0200B42A0B12041090028B12047C80D9742A2B
:0E0E12001204A508D9E61205A4B42A0280C96C
:100E2000B423F52212041090024B12047C120E31EE
:100E300022756D0012040A740F12041679067414D8
:0E0E4000120416D9F978547A0486F01205A42B
:0E0E4E00B5F019742A1204A508DAF01205A4F2
:0E0E5C00B42A0280D0B423F5E56DB40006225E
:0E0E6A00756DFF80E212041090018712047C67
:0E0E780012052C020DBD120410787D75660166
:100E8600901FFF120BE122C2A1C2A074D0120F392B
:100E9600D2A1D2A0B2B020A1EEC2A0E560120F3955
:100EA600D2A1D2A020A1E0C2A0E561120F39D2A141
:100EB600D2A020A1D2C2A1C2A0D2A0D2A122C2A1F8
:100EC600C2A074D0120F39D2A1D2A020A1F0C2A024
:100ED600E560120F39D2A1D2A020A1E2C2A0D2A011
:0F0EE600D2A1C2A1C2A074D1120F39D2A1D2A041
:100EF50020A1CCC2A0120F49D2A1D2A0C2A0D2A0DB
:0F0F0500D2A122756000120EC4856150120F5BDD
:0F0F1400756001120EC4856151120F5B7560028A
:0F0F2300120EC4856152120F5B756003120EC46B
:100F3200856167120F5B22C0027A083392A1D2A0A8
:0F0F4200C2A0DAF7D00222C0027A08D2A0A2A180
:0F0F5100C2A033DAF7F561D00222C2A1D2A0000C
:100F6000D2A1227566079003387854E493F608A35B
:0E0F7000D566F89000017854756607120BE103
:0C0F7E009000087854756607120BE12201
:00000001FF
