:03000000020100FA
:10010000120130C2A0C2A1C2A2C2B700D2A0D2A125
:0F0110000074011201629001901202F512034E69
:0F011F00756500120181757D011203741203E1F1
:0E012E0080F2743C120162743C120162743C57
:0F013C00120162740C12016274061201627401E6
:10014B00120162221202F512034E22748012016216
:10015B002274C012016222120170F580C2A5C2A6E0
:10016B00D2A7C2A722C2A77580FFC2A5D2A6C2A7DB
:0E017B00D2A72087F922907FFF795475660382
:1001890012098585547D222020202057454C434F54
:100199004D45210F202020202048483A4D4D0F2061
:1001A900202020205F5F3A5F5F0F202020204441FC
:1001B900595B312D375D0F494E56414C4944204E0C
:1001C900554D4245520F3030304D4F4E54554557DD
:1001D900454454485546524953415453554E31327A
:1001E90033340F3132333435363738392A30232016
:1001F90020454E544552205448452050494E0F2021
:100209002054494D4520495320534554210F204935
:100219004E434F5252454354202050494E0F2020FF
:1002290020454D455247454E43590F2053454C45AE
:100239004354204F5054494F4E0F31294E455720B2
:10024900203229454449540F42454C4C2E204E4FEB
:100259002E5B30312D0F20204E4F2042454C4C5300
:10026900205345540F202042454C4C2049532053DC
:100279004554210F2042454C4C204E4F2E204953C6
:10028900200F204E45572042454C4C2054494D459E
:100299000F4455524154494F4E5B494E20534543F3
:1002A9005D0F5B312D395D3A200F20202020434F0F
:1002B9004E4649524D210F5345430F75F06484FA58
:1002C900E5F075F00A84C425F0F54022C0E0540F2A
:1002D900FAD0E054F0C475F00AA42A22E540540F7C
:0F02E9002430FAE540C4540F2430FB2200740C7B
:0F02F800120162E493B40F0122A312032280F4D7
:10030700C00175F003A4F5F079049001CFE5F093EF
:10031700D903D00122A312032280F2120170F580C3
:10032700D2A5C2A6D2A7C2A7221202E5EB120322C8
:10033700EA12032222855240120330743A12032232
:0F034700855140120330227F0A7EFF7DFFDDFECD
:0F035600DEFADFF622C007C006C0047F057EFF77
:0F0365007CFFDCFEDEFADFF6D004D006D00722E4
:0F03740030B30730B40930B50B221207A880F45C
:0F0383001204F180F21204E280F07D007590FE0A
:0F039200E59064FE702AED2403FD7590FDE59063
:0F03A10064FD701DED2403FD7590FBE59064FB7A
:0F03B0007010ED2403FD7590F7E59064F770036E
:0E03BF0002038DE59054F0C41350030D80FA34
:0F03CD0012035B7590F00000E59064F070F2EDA4
:1003DC009001EC9322120ACEE567B565118567652D
:0E03EC00E552B56208E551B56303120408221C
:0E03FA0085676585526285516312040C80E1AF
:1004080012040C22900000E565AC7DBC02022407B2
:0F041800F582756601797C7800120985900000E5
:0F042700E565BC02022407F58308740388F0A47E
:10043600F582756603A941120985E5418562F0C317
:1004460095F04034700CC3E5428563F095F0402882
:0F0456006026B801028018E5448541F0C395F097
:10046500500E7015C3E5458542F095F0400B6009C7
:10047500854144854245854346E8B57CAE85446261
:0F0485008545638546642274011201629001F877
:0F0494001202F512015C78067414120162D8FB93
:0F04A300740E120162120A4778547564007904CE
:0F04B20086F012038DB42A0280D0B5F01E742A92
:0F04C10012032208D9EBE56475F000B5F00122B3
:1004D000740112016290021712014F80AF7564FF20
:1004E00080DD12048C74011201629002271202F561
:0F04F0002274011201629002341202F512015CB3
:0E04FF009002431202F5740E12016212038D78
:0F050D0075F031B5F00302066775F032B5F0EE08
:0F051C001207FAF553900000AC7D795075660117
:0F052B00E553BC02022407F5821209857950E7D7
:0E053A0075F000B5F010740112016290025FBE
:0F0548001202F512034E80A1E553900000AC7D26
:0F055700BC02022407F5827950756601120985EE
:100566007950E7C0E074011201629002511202F55F
:0F057600D0E01202C4C0E0120330745D12032201
:1005850012015C740F120162D0E085E0401202E5B1
:0E05950075F0047414120162D5F0FA12038D91
:1005A300120322B42A0280A5B423051206F9809D02
:0F05B300C3C0E09B400760051206F98090D0E0BE
:1005C2009430C4F9C00112038D120322C3B42A026B
:1005D200A150B423051206F9A150C3C0E09A400706
:0F05E20060051206F9A150D0E0C39430D0012972
:0F05F1001202D5F57C855383AC7DE583BC0202F5
:0F0600002407F58375F003A4F58279547566031A
:0E060F0012098585545285555174201203221C
:0E061D0012033C12038DB42A02A150B423F53F
:0F062B0075F00112086F12074B12071D12038D95
:10063A00B42A02A11CB423F5740112016290026E5D
:0F064A001202F5855383E583AC7DBC02022407C1
:0E065900F583E57C75F003A4F58212070B22F1
:0E0667001207FAF55375F00112086F12074BD7
:0F067500900000AC7DE553BC02022407756601BE
:100684007954F58212098585547C12071D12038D55
:0F069400B42A0280CEB423F5AC7DE553BC01023D
:0F06A30080022407F583E57C0475F003A4F5823B
:0E06B20012070B740112016212015690026EC3
:0F06C00012014F12015C90027D12014FE57C0484
:1006CF001202C4120330E57C04F5547854756601A8
:1006DF00900000AC7DE553BC010280022407F58237
:0F06EF0012093B12034E12034E227401120162D4
:1006FE009001C012014F12034E12034E2275660373
:0F070E00855254855155856A56785412093B22FD
:0E071D0074011201629002B31202F512015C27
:0F072B0012033C7414120162E553120307741495
:10073A00120162E56A24301203229002C01202F505
:0F074A0022740112016290029A1202F512015CF0
:0E0759009002AB1202F5740F12016212038DB2
:10076700120322B4300512079980D9B42A0280D423
:10077700B4230512079980CCC375F03095F0C0E01B
:0F07870012038DB42A04D0E080BAB423F3D0E07B
:0E079600F56A2274011201629001C012014F37
:1007A40012034E2212048C75F00012086F7560015A
:0F07B400855161120A53756002855261120A5312
:1007C3001207FA756003F561120A5374011201628C
:1007D30090020812014F12015C120ACEC001790384
:0E07E3007414120162D9FBD00112033C742081
:0E07F100120322E5671203072274011201624F
:0E07FF009001B312014F12015C120162740FDF
:0F080D0012016278057414120162D8FB12038D78
:10081C00120322B423028035B42A028030B4300291
:10082C00802BF9C001C394385023C3741412016295
:0E083C00E99430120307740C12016212038D4E
:0F084A00B42A0280ABB423F5D001E9C394302265
:0E085900120156740C1201629001C012014F80
:1008670012034E12034E808B74011201627401C38E
:0F08770095F0600590019D800390028B12014F58
:0E08860012015C9001A812014F12015C740F68
:0F08940012016279057414120162D9F912038DF1
:1008A300120322B423028037B42A0302086FF9C368
:1008B3009433502BC3E99430C4F912038D120322ED
:1008C300B423030208E2B42A0302086FC394302955
:0F08D300F9C394255009741412016289528012DE
:0F08E2001201569001C012014F12034E12034E25
:0E08F10002086F12038D120322B4230280E36B
:1008FF00B42A0302086FF8C3943650D7E8C3943074
:10090F00C4F812038D120322B4230280C6B42A0343
:10091F0002086FC3943028F8740C12016212038D11
:0F092F00B42A0302086FB423F48851221209B3CB
:0F093E0074A01209F1E5821209F1E5831209F1A3
:10094D008664E5641209F11209D2120A3A120A3AC2
:0F095D001209B374A01209F1E5821209F1E583C2
:10096C001209F18664E5641209F11209D2120A3AED
:0E097C00120A3AA308D566B7221209B374A076
:10098A001209F1E5821209F1E5831209F11209B39C
:0E099A0074A11209F1120A131209D2120A3ABC
:1009A800120A3AA3A73C09D566D322D2A1000000B7
:1009B80000000000D2A00000000000000000C2A15A
:1009C80000000000000000C2A022C2A10000000038
:1009D800000000D2A00000000000000000D2A1002A
:0E09E800000000000000C2A0227F003392A198
:0F09F600120A2D0FBF08F6D2A10000000000006A
:100A0500D2A020A1FD120A3AC2A0120A3A22D2A10E
:100A15007F00E4D2A00000A2A133C2A00FBF08F35B
:100A2500D2A1120A2DF53C22D2A000000000000040
:0E0A35000000C2A02275330B7532FFD532FDD2
:100A4300D533F72279549070017566041209852213
:0F0A5300C2A1C2A074D0120AFFD2A1D2A0B2B029
:0E0A620020A1EEC2A0E560120AFFD2A1D2A030
:0E0A700020A1E0C2A0E561120AFFD2A1D2A02F
:100A7E0020A1D2C2A1C2A0D2A0D2A122C2A1C2A044
:100A8E0074D0120AFFD2A1D2A020A1F0C2A0E560BC
:100A9E00120AFFD2A1D2A020A1E2C2A0D2A0D2A15E
:100AAE00C2A1C2A074D1120AFFD2A1D2A020A1CCA1
:100ABE00C2A0120B0FD2A1D2A0C2A0D2A0D2A1224C
:0F0ACE00756000120A8A856150120B2175600154
:0F0ADD00120A8A856151120B21756002120A8A72
:0F0AEC00856152120B21756003120A8A856167BA
:0F0AFB00120B2122C0027A083392A1D2A0C2A00E
:100B0A00DAF7D00222C0027A08D2A0A2A1C2A03388
:0F0B1A00DAF7F561D00222C2A1D2A000D2A12247
:100B29007566049001E77854E493F608A3D566F84E
:0C0B3900907001785475660412093B228C
:00000001FF
