:03000000020100FA
:1001000012011EC2A0C2A1C2A2C2B700D2A0D2A137
:1001100000C20012014412049F1204BB80FE743C12
:10012000120150743C120150743C120150740C12B4
:10013000015074061201507401120150221201F391
:100140001202212274801201502274C01201502226
:1001500012015EF580C2A5C2A6D2A7C2A722C2A77D
:100160007580FFC2A5D2A6C2A7D2A72087F92220F8
:1001700020202057454C434F4D45212020200F2063
:100180002020202048483A4D4D2020202020200FBC
:1001900020202020205F5F3A5F5F20202020202049
:1001A0000F4441595B312D375D0F494E56414C4943
:1001B00044204E554D4245520F3030304D4F4E5435
:1001C0005545574544544855465249534154535553
:1001D0004E313233340F3132333435363738392AF1
:1001E000302320454E5445522050415353574F52CF
:1001F00044200F00E493B40F0122A312021380F4F1
:10020000F5F079049001B9E5F093D90122A3120227
:100210001380F412015EF580D2A5C2A6D2A7C2A7B0
:10022000227F0A7EFF7DFFDDFEDEFADFF62230B39D
:1002300069227D007590FEE59064FE702AED24032E
:10024000FD7590FDE59064FD701DED2403FD759036
:10025000FBE59064FB7010ED2403FD7590F7E590CD
:1002600064F77003020232E59054F0C41350030D9A
:1002700080FA7590F00000E59064F070F5ED900163
:10028000D693120221221201449001E21201F312CC
:10029000014A740F120150120232120286120144F6
:1002A00090017F12013D12014A90019012013D120E
:0B02B000014A740F120150790574140C
:1002BB00120150D9F9120232120213B43002800823
:1002CB00B431028003B43224C39430C4F912023225
:1002DB00120213B423028014B42A02800FC3943089
:1002EB00299425500774141201508016120144747E
:1002FB000C1201509001AA12013D1202211202218F
:10030B00808D120232120213B4230280DFB42A0250
:10031B0080DA943650D6C3120232120213B423027F
:10032B0080CAB42A0280C5740C120150120232B476
:10033B002A02419AB423F574011201509001A112C3
:10034B00013D12014A120150740F12015012023278
:10035B00120213B423028031B42A02802CB430026F
:10036B008027F994385022C3740C12015074141264
:10037B000150E9943075F003A4120200120232B45A
:10038B002A0280B3B423F58016120144740C1201B7
:10039B00509001AA12013D120221120221809822D3
:1003AB00910F74A0914DE582914DE583914D86643B
:1003BB00E564914D912E120492120492910F74A048
:1003CB00914DE582914DE583914D8664E564914DA8
:1003DB00912E120492120492A308D566C322910F98
:1003EB0074A0914DE582914DE583914D910F74A1D0
:1003FB00914D916C912E120492120492A3A73C0979
:07040B00D566DB22D2A1003F
:10041200000000000000D2A0000000000000000068
:10042200C2A100000000000000C2A022C2A1000080
:100432000000000000D2A00000000000000000D276
:10044200A100000000000000C2A0227F003392A1A0
:1004520091850FBF08F7D2A1000000000000D2A0D2
:1004620020A1FD9192C2A0919222D2A17F00E4D25A
:10047200A00000A2A133C2A00FBF08F3D2A19185B0
:10048200F53C22D2A00000000000000000C2A02221
:1004920075330B7532FFD532FDD533F722756604FD
:1004A2009001D17850E493F608A3D566F8907001D4
:1004B20078507566041203AB227954907001756608
:1004C200041203E97566047854E612021308D5662D
:0204D200F8220E
:00000001FF
