:03000000020100FA
:10010000120121C2A0C2A1C2A2C2B700D2A0D2A134
:1001100000C2001201479001721202151202728091
:10012000FB743C120153743C120153743C12015392
:10013000740C1201537406120153740112015322FC
:1001400012021512024C2274801201532274C01242
:10015000015322120161F580C2A5C2A6D2A7C2A78F
:1001600022C2A77580FFC2A5D2A6C2A7D2A72087A8
:10017000F9222020202057454C434F4D45210F2088
:100180002020202048483A4D4D0F20202020205F7D
:100190005F3A5F5F0F202020204441595B312D37AB
:1001A0005D0F494E56414C4944204E554D424552F3
:1001B0000F3030304D4F4E545545574544544855F7
:1001C00046524953415453554E313233340F313234
:1001D000333435363738392A302320454E5445528A
:1001E0002050415353574F52440F20205345542021
:1001F00054494D452049530F20494E434F525245D3
:100200004354202050494E0F202020454D45524751
:10021000454E43590F00740C120153E493B40F017F
:1002200022A312023E80F4C001F5F079049001B1DE
:10023000E5F093D903D00122A312023E80F212010D
:1002400061F580D2A5C2A6D2A7C2A7227F0A7EFFEF
:100250007DFFDDFEDEFADFF622C007C006C0047FA8
:10026000057EFF7CFFDCFEDEFADFF6D004D006D090
:10027000072230B30430B5062212033B80F7120385
:100280002C227D007590FEE59064FE702AED24031B
:10029000FD7590FDE59064FD701DED2403FD7590E6
:1002A000FBE59064FB7010ED2403FD7590F7E5907D
:1002B00064F77003020282E59054F0C41350030DFA
:1002C00080FA1202597590F00000E59064F070F227
:1002D000ED9001CE932274011201539001DA1202C3
:1002E0001512014D78067414120153D8FB740E12C6
:1002F000015312059D7854756400790486F012024A
:1003000082B42A0280D0B5F01E742A12023E08D9A7
:10031000EBE56475F000B5F0012274011201539011
:1003200001F812014080AF7564FF80DD1202D674BF
:1003300001120153900208120215221202D6740112
:1003400012015390017F12014012014D90018A1257
:10035000014012014D740F120153790574141201FA
:1003600053D9F912028212023EB42302803BB42A0E
:100370000302033EF9C39433502FC3E99430C4F908
:1003800012028212023EB42302801EB42A0280AE00
:10039000C3943029F9C39425500F74141201537576
:1003A000600289611205C980111201479001A212F1
:1003B000014012024C12024C808412028212023E50
:1003C000B4230280E4B42A0302033EF8C3943650F7
:1003D000D8E8C39430C4F812028212023EB4230259
:1003E00080C7B42A0302033EC3943028F8740C1269
:1003F0000153120282B42A02613EB423F5756001F2
:1004000088611205C97401120153900195120140CF
:1004100012014D120153740F120153780574141216
:0F0420000153D8FB12028212023EB42302804223
:10042F00B42A02803DB430028038F9C001C3943839
:10043F005030C37414120153E9943075F003A412B1
:10044F000227740C120153120282B42A0280A7B43D
:10045F0023F5D001E9C39430756003F5611205C926
:10046F008016120147740C1201539001A212014021
:10047F0012024C12024C810574011201539001EAD1
:10048F0012014012014D120666C001790374141255
:10049F000153D9FBD0011206A722B10D74A0B14BA5
:1004AF00E582B14BE583B14B8664E564B14BB12C6A
:1004BF00120590120590B10D74A0B14BE582B14BAE
:1004CF00E583B14B8664E564B14BB12C12059012F4
:1004DF000590A308D566C322B10D74A0B14BE58278
:1004EF00B14BE583B14BB10D74A1B14BB16AB12CD6
:1004FF00120590120590A3A73C09D566DB22D2A165
:10050F0000000000000000D2A0000000000000006A
:10051F0000C2A100000000000000C2A022C2A10082
:10052F00000000000000D2A000000000000000004A
:05053F00D2A100000044
:1005440000000000C2A0227F003392A1B1830FBF3C
:1005540008F7D2A1000000000000D2A020A1FDB144
:1005640090C2A0B19022D2A17F00E4D2A00000A248
:10057400A133C2A00FBF08F3D2A1B183F53C22D2AC
:10058400A00000000000000000C2A02275330B751B
:1005940032FFD532FDD533F722C001795490700172
:1005A4007566041204E7D001227566049001C978C7
:1005B40050E493F608A3D566F890700178507566F8
:1005C400041204A922C2A1C2A074D0120600D2A1AE
:1005D400D2A0B2B020A1EEC2A0E560120600D2A162
:1005E400D2A020A1E0C2A0E561120600D2A1D2A04F
:1005F40020A1D2C2A1C2A0D2A0D2A122C0027A0854
:100604003392A1D2A0C2A0DAF7D00222C2A1C2A022
:1006140074D0120600D2A1D2A020A1F0C2A0E5603D
:10062400120600D2A1D2A020A1E2C2A0D2A0D2A1DF
:10063400C2A1C2A074D1120600D2A1D2A020A1CC22
:10064400C2A0120654D2A1D2A0C2A0D2A0D2A1228A
:0F065400C0027A08D2A0A2A1C2A033DAF7F561E2
:10066300D002227560001206108561501206DB75F8
:1006730060011206108561511206DB7560021206D5
:10068300108561521206DB756003120610856167DF
:100693001206DB22E540540F2430FAE540C4540F20
:1006A3002430FB22C040855240120697EB12023ED3
:1006B300EA12023E743A12023E855140120697EB4B
:1006C30012023EEA12023E742012023EE56775F002
:1006D30003A4120227D04022C2A1D2A000D2A12299
:00000001FF
