:03000000020100FA
:100100003121C2A0C2A1C2A2C2B700D2A0D2A10016
:10011000313F74013149900167518A51C151E780E3
:10012000FC743C3149743C3149743C3149740C31A4
:1001300049740631497401314922518A51C12274EE
:100140008031492274C03149223156F580C2A5C29E
:10015000A6D2A7C2A722C2A77580FFC2A5D2A6C2F7
:10016000A7D2A72087F9222020202057454C434FB3
:100170004D45210F202020202048483A4D4D0F208A
:10018000202020205F5F3A5F5F0F20202020444125
:10019000595B312D375D0F494E56414C4944204E35
:1001A000554D4245520F3030304D4F4E5455455706
:1001B000454454485546524953415453554E3132A3
:1001C00033340F3132333435363738392A3023203F
:1001D00020454E544552205448452050494E0F204A
:1001E0002054494D4520495320534554210F20495F
:1001F0004E434F5252454354202050494E0F202029
:1002000020454D455247454E43590F2053454C45D7
:100210004354204F5054494F4E0F31294E455720DB
:10022000203229454449540F20534C2E204E4F2E46
:100230005B312D0F20204E4F2042454C4C53205314
:1002400045540F204E45572042454C4C2054494DB3
:10025000450F4455524154494F4E5B494E2053453A
:10026000435D0F5B312D395D3A200F202020204364
:100270004F4E4649524D210F5345430F20204245D2
:100280004C4C204953205345540F00740C3149E421
:1002900093B40F0122A351B480F5C00175F003A4FB
:1002A000F5F079049001A6E5F093D903D00122A3DB
:1002B00051B480F33156F580D2A5C2A6D2A7C2A709
:1002C000227F0A7EFF7DFFDDFEDEFADFF622C00719
:1002D000C006C0047F057EFF7CFFDCFEDEFADFF691
:1002E000D004D006D0072230B30730B40830B509A7
:1002F00022B15E80F571A880F4719C80F37D007559
:1003000090FEE59064FE702AED2403FD7590FDE5F6
:100310009064FD701DED2403FD7590FBE59064FB7A
:100320007010ED2403FD7590F7E59064F7700302FB
:0D03300002FDE59054F0C41350030D80FA57
:10033D0051CE7590F00000E59064F070F3ED9001F2
:10034D00C39322740131499001CF518A314478060B
:10035D0074143149D8FC740E3149F1F47854756434
:10036D0000790486F051FDB42A0280D7B5F01B74D4
:10037D002A51B408D9EDE56475F000B5F001227489
:10038D000131499001EE313A80B97564FF80E07119
:10039D0050740131499001FE518A22740131499006
:1003AD00020B518A314490021A518A740E3149510F
:1003BD00FD75F031B5F00281EA75F032B5F0F0B1AE
:1003CD00A6F553900000F5827950756601F10F790D
:1003DD0050E775F000B5F009900234518A51C18093
:1003ED00BAE553900000F5827950756601F10F79E9
:1003FD0050E7C0E074013149900228518AD0E012D3
:10040D0008B0C0E0D1BC745D51B43144740F3149B2
:10041D00D0E085E04012089875F00474143149D588
:10042D00F0FB51FD51B4B42A0280B6B4230281EB26
:10043D00C3C0E09B4004600281EBD0E09430C4F96E
:10044D00C00151FD51B4C3B42A028095B423028179
:10045D00EBC3C0E09A4004600281EBD0E0C394305E
:0E046D00D001291208C1F57C85538375F00378
:10047B00A4F5827954756603F10F85545285555155
:10048B00742051B41206C651FDB42A0261EEB42396
:10049B00F675F001D10AB10C740112014990026B8F
:1004AB00518A31441206C674143149E553519A747A
:1004BB00143149E56A243051B4900278518A51FDC8
:1004CB00B42A0261CCB423F67401314990027C51F9
:1004DB008A855383E57C75F003A4F58291FA222279
:1004EB0074013149900197313A51C151C161EE7597
:1004FB006603855254855155856A56A9541206D503
:10050B002274013149900252518A31449002631294
:10051B00028A740F314951FD51B4B43004B151808A
:10052B00E0B42A0280DBB42304B15180D4C375F04C
:10053B003095F0C0E051FDB42A04D0E080C3B42361
:10054B00F4D0E0F56A227401120149900197313A17
:10055B0051C122715075F000D10A7560018551614E
:10056B00F1FF756002855261F1FFB1A6756003F56D
:10057B0061F1FF740131499001DF313A3144F1A946
:10058B00C001790374143149D9FCD001D1C6742050
:10059B0051B4E56775F003A4519A22740131499067
:1005AB00018A313A31443149740F31497805741459
:0D05BB003149D8FC51FD51B4B42302803108
:1005C800B42A02802CB430028027F9C001C39438C1
:1005D800501FC374143149E99430519A740C31494D
:1005E80051FDB42A0280B7B423F6D001E9C3943090
:1005F80022313F740C3149900197313A51C151C1B0
:10060800809C740131497401C395F06005900174B0
:100618008003900243313A314490017F313A3144AA
:10062800740F3149790574143149D9FA51FD51B41F
:10063800B423028032B42A0302060AF9C394335061
:1006480026C3E99430C4F951FD51B4B4230280178C
:10065800B42A0280ADC3943029F9C3942550087494
:100668001431498952800D313F900197313A51C177
:1006780051C1808E51FD51B4B4230280EAB42A03DB
:1006880002060AF8C3943650DEE8C39430C4F85121
:10069800FD51B4B4230280CFB42A0302060AC394DE
:1006A8003028F8740C314951FDB42A02C10AB42328
:1006B800F6885122120898EB51B4EA51B4228552B7
:1006C80040D1BC743A51B4855140D1BC22F1337445
:1006D800A0F171E582F171E583F1718664E564F159
:0506E80071F152F1E781
:1006ED00F1E7F13374A0F171E582F171E583F171F8
:1006FD008664E564F171F152F1E7F1E7A308D5667F
:10070D00C722F13374A0F171E582F171E583F171C6
:10071D00F13374A1F171F190F152F1E7F1E7A3A773
:10072D003C09D566DD22D2A100000000000000D2F8
:10073D00A00000000000000000C2A10000000000A9
:10074D000000C2A022C2A100000000000000D2A043
:10075D000000000000000000D2A100000000000019
:10076D0000C2A0227F003392A1F1DA0FBF08F7D2A9
:10077D00A1000000000000D2A020A1FDF1E7C2A061
:10078D00F1E722D2A17F00E4D2A00000A2A133C2E2
:10079D00A00FBF08F3D2A1F1DAF53C22756000126B
:1007AD0008368561501208A87560011208368561FA
:1007BD00511208A87560021208368561521208A8F8
:1007CD007560031208368561671208A822D2A00051
:0607DD0000000000000016
:1007E30000C2A02275330B7532FFD532FDD533F726
:1007F300227954907001756604F10F22C2A1C2A040
:1008030074D0120876D2A1D2A0B2B020A1EEC2A0B9
:10081300E560120876D2A1D2A020A1E0C2A0E561D2
:10082300120876D2A1D2A020A1D2C2A1C2A0D2A086
:10083300D2A122C2A1C2A074D01176D2A1D2A0208B
:10084300A1F1C2A0E5601176D2A1D2A020A1E4C299
:10085300A0D2A0D2A1C2A1C2A074D11176D2A1D23A
:10086300A020A1CFC2A01186D2A1D2A0C2A0D2A0A3
:10087300D2A122C0027A083392A1D2A0C2A0DAF791
:10088300D00222C0027A08D2A0A2A1C2A033DAF712
:10089300F561D00222E540540F2430FAE540C454F8
:1008A3000F2430FB22C2A1D2A000D2A12275F06492
:1008B30084FAE5F075F00A84C425F0F54022C0E01F
:1008C300540FFAD0E054F0C475F00AA42A227566D6
:1008D300037858E493F608A3D566F890050378588F
:1008E3007566031206D579547566039005031207DE
:0808F3000F8554401206BC22DF
:00000001FF
