:03000000020100FA
:10010000120121C2A0C2A1C2A2C2B700D2A0D2A134
:1001100000C2001201479001721201401201C18019
:10012000FB743C120153743C120153743C12015392
:10013000740C1201537406120153740112015322FC
:100140001201991201B42274801201532274C01258
:10015000015322120161F580C2A5C2A6D2A7C2A78F
:1001600022C2A77580FFC2A5D2A6C2A7D2A72087A8
:10017000F9222020202057454C434F4D4521202077
:10018000200F48483A4D4D204441595B302D375D92
:100190000F5F5F3A5F5F205F0F00E493B40F0122AF
:1001A000A31201A680F4120161F580D2A5C2A6D2E5
:1001B000A7C2A7227F0A7EFF7DFFDDFEDEFADFF603
:1001C0002230B361227D007590FEE59064FE702AB6
:1001D000ED2403FD7590FDE59064FD701DED240395
:1001E000FD7590FBE59064FB7010ED2403FD7590A8
:1001F000F7E59064F770030201C5E59054F0C4136D
:1002000050030D80FA7590F00000E59064F070F5F1
:10021000ED900219931201B422313233343536375E
:1002200038392A302312014790018212014012010D
:100230004D90019112014012014D740F12015312A1
:1002400001C51201A61201C51201A67414120153B0
:100250001201C51201A61201C51201A674141201E1
:0D026000531201C51201A6740C12015322A5
:00000001FF
